{
  "contractName": "Article",
  "abi": [
    {
      "inputs": [],
      "stateMutability": "payable",
      "type": "constructor",
      "payable": true
    },
    {
      "inputs": [
        {
          "internalType": "string",
          "name": "",
          "type": "string"
        }
      ],
      "name": "articleID",
      "outputs": [
        {
          "internalType": "uint256",
          "name": "",
          "type": "uint256"
        }
      ],
      "stateMutability": "view",
      "type": "function",
      "constant": true
    },
    {
      "inputs": [
        {
          "internalType": "uint256",
          "name": "",
          "type": "uint256"
        }
      ],
      "name": "articleStorage",
      "outputs": [
        {
          "internalType": "string",
          "name": "ipfsHash",
          "type": "string"
        },
        {
          "internalType": "string",
          "name": "title",
          "type": "string"
        },
        {
          "internalType": "string",
          "name": "description",
          "type": "string"
        },
        {
          "internalType": "string",
          "name": "authorName",
          "type": "string"
        },
        {
          "internalType": "string",
          "name": "coverImageHash",
          "type": "string"
        },
        {
          "internalType": "int256",
          "name": "votes",
          "type": "int256"
        },
        {
          "internalType": "address payable",
          "name": "author",
          "type": "address"
        }
      ],
      "stateMutability": "view",
      "type": "function",
      "constant": true
    },
    {
      "inputs": [],
      "name": "owner",
      "outputs": [
        {
          "internalType": "address payable",
          "name": "",
          "type": "address"
        }
      ],
      "stateMutability": "view",
      "type": "function",
      "constant": true
    },
    {
      "inputs": [
        {
          "internalType": "string",
          "name": "_ipfsHash",
          "type": "string"
        },
        {
          "internalType": "string",
          "name": "_title",
          "type": "string"
        },
        {
          "internalType": "string",
          "name": "_description",
          "type": "string"
        },
        {
          "internalType": "string",
          "name": "_authorName",
          "type": "string"
        },
        {
          "internalType": "string",
          "name": "_coverImageHash",
          "type": "string"
        }
      ],
      "name": "addArticle",
      "outputs": [],
      "stateMutability": "nonpayable",
      "type": "function"
    },
    {
      "inputs": [
        {
          "internalType": "string",
          "name": "_ipfsHash",
          "type": "string"
        }
      ],
      "name": "getAuthorKey",
      "outputs": [
        {
          "internalType": "address",
          "name": "",
          "type": "address"
        }
      ],
      "stateMutability": "view",
      "type": "function",
      "constant": true
    },
    {
      "inputs": [
        {
          "internalType": "string",
          "name": "_ipfsHash",
          "type": "string"
        }
      ],
      "name": "getVotes",
      "outputs": [
        {
          "internalType": "int256",
          "name": "",
          "type": "int256"
        }
      ],
      "stateMutability": "view",
      "type": "function",
      "constant": true
    },
    {
      "inputs": [
        {
          "internalType": "string",
          "name": "_ipfsHash",
          "type": "string"
        }
      ],
      "name": "getTitle",
      "outputs": [
        {
          "internalType": "string",
          "name": "",
          "type": "string"
        }
      ],
      "stateMutability": "view",
      "type": "function",
      "constant": true
    },
    {
      "inputs": [
        {
          "internalType": "string",
          "name": "_ipfsHash",
          "type": "string"
        }
      ],
      "name": "getDescription",
      "outputs": [
        {
          "internalType": "string",
          "name": "",
          "type": "string"
        }
      ],
      "stateMutability": "view",
      "type": "function",
      "constant": true
    },
    {
      "inputs": [
        {
          "internalType": "string",
          "name": "_ipfsHash",
          "type": "string"
        }
      ],
      "name": "getAuthorName",
      "outputs": [
        {
          "internalType": "string",
          "name": "",
          "type": "string"
        }
      ],
      "stateMutability": "view",
      "type": "function",
      "constant": true
    },
    {
      "inputs": [
        {
          "internalType": "string",
          "name": "_ipfsHash",
          "type": "string"
        }
      ],
      "name": "getCoverImageHash",
      "outputs": [
        {
          "internalType": "string",
          "name": "",
          "type": "string"
        }
      ],
      "stateMutability": "view",
      "type": "function",
      "constant": true
    },
    {
      "inputs": [
        {
          "internalType": "uint256",
          "name": "retrieve",
          "type": "uint256"
        }
      ],
      "name": "getRecentArticles",
      "outputs": [
        {
          "components": [
            {
              "internalType": "string",
              "name": "ipfsHash",
              "type": "string"
            },
            {
              "internalType": "string",
              "name": "title",
              "type": "string"
            },
            {
              "internalType": "string",
              "name": "description",
              "type": "string"
            },
            {
              "internalType": "string",
              "name": "authorName",
              "type": "string"
            },
            {
              "internalType": "string",
              "name": "coverImageHash",
              "type": "string"
            },
            {
              "internalType": "int256",
              "name": "votes",
              "type": "int256"
            },
            {
              "internalType": "address payable",
              "name": "author",
              "type": "address"
            }
          ],
          "internalType": "struct Article.article[]",
          "name": "",
          "type": "tuple[]"
        }
      ],
      "stateMutability": "view",
      "type": "function",
      "constant": true
    },
    {
      "inputs": [
        {
          "internalType": "uint256",
          "name": "_articleID",
          "type": "uint256"
        }
      ],
      "name": "getArticle",
      "outputs": [
        {
          "components": [
            {
              "internalType": "string",
              "name": "ipfsHash",
              "type": "string"
            },
            {
              "internalType": "string",
              "name": "title",
              "type": "string"
            },
            {
              "internalType": "string",
              "name": "description",
              "type": "string"
            },
            {
              "internalType": "string",
              "name": "authorName",
              "type": "string"
            },
            {
              "internalType": "string",
              "name": "coverImageHash",
              "type": "string"
            },
            {
              "internalType": "int256",
              "name": "votes",
              "type": "int256"
            },
            {
              "internalType": "address payable",
              "name": "author",
              "type": "address"
            }
          ],
          "internalType": "struct Article.article",
          "name": "",
          "type": "tuple"
        }
      ],
      "stateMutability": "view",
      "type": "function",
      "constant": true
    },
    {
      "inputs": [],
      "name": "getAllArticles",
      "outputs": [
        {
          "components": [
            {
              "internalType": "string",
              "name": "ipfsHash",
              "type": "string"
            },
            {
              "internalType": "string",
              "name": "title",
              "type": "string"
            },
            {
              "internalType": "string",
              "name": "description",
              "type": "string"
            },
            {
              "internalType": "string",
              "name": "authorName",
              "type": "string"
            },
            {
              "internalType": "string",
              "name": "coverImageHash",
              "type": "string"
            },
            {
              "internalType": "int256",
              "name": "votes",
              "type": "int256"
            },
            {
              "internalType": "address payable",
              "name": "author",
              "type": "address"
            }
          ],
          "internalType": "struct Article.article[]",
          "name": "",
          "type": "tuple[]"
        }
      ],
      "stateMutability": "view",
      "type": "function",
      "constant": true
    },
    {
      "inputs": [
        {
          "internalType": "string",
          "name": "_ipfsHash",
          "type": "string"
        }
      ],
      "name": "upvote",
      "outputs": [
        {
          "internalType": "int256",
          "name": "",
          "type": "int256"
        }
      ],
      "stateMutability": "nonpayable",
      "type": "function"
    },
    {
      "inputs": [
        {
          "internalType": "string",
          "name": "_ipfsHash",
          "type": "string"
        }
      ],
      "name": "downvote",
      "outputs": [
        {
          "internalType": "int256",
          "name": "",
          "type": "int256"
        }
      ],
      "stateMutability": "nonpayable",
      "type": "function"
    }
  ],
  "bytecode": "0x60806040526000600155336000806101000a81548173ffffffffffffffffffffffffffffffffffffffff021916908373ffffffffffffffffffffffffffffffffffffffff160217905550612a6c806100586000396000f3fe608060405234801561001057600080fd5b50600436106100f55760003560e01c80636558d48411610097578063b13e4b6211610066578063b13e4b62146102fe578063b44d310b1461031a578063bd85d86714610338578063ce1acb3b14610368576100f5565b80636558d4841461024a578063805265e5146102805780638374d7d5146102b05780638da5cb5b146102e0576100f5565b806345de2ca0116100d357806345de2ca01461018a5780634e53128e146101ba5780635729e6ee146101ea57806360bde8331461021a576100f5565b806318b9c2fc146100fa5780631b46e49c1461012a57806331011b921461015a575b600080fd5b610114600480360381019061010f919061211f565b610398565b60405161012191906121f0565b60405180910390f35b610144600480360381019061013f919061211f565b6104dd565b60405161015191906121f0565b60405180910390f35b610174600480360381019061016f919061211f565b610622565b6040516101819190612253565b60405180910390f35b6101a4600480360381019061019f919061211f565b6106ca565b6040516101b191906121f0565b60405180910390f35b6101d460048036038101906101cf91906122a4565b61080f565b6040516101e191906124cf565b60405180910390f35b61020460048036038101906101ff919061211f565b610c64565b6040516102119190612500565b60405180910390f35b610234600480360381019061022f919061211f565b610c92565b604051610241919061252a565b60405180910390f35b610264600480360381019061025f91906122a4565b610ea6565b6040516102779796959493929190612554565b60405180910390f35b61029a6004803603810190610295919061211f565b6111c0565b6040516102a7919061252a565b60405180910390f35b6102ca60048036038101906102c5919061211f565b611248565b6040516102d7919061252a565b60405180910390f35b6102e861145c565b6040516102f591906125e6565b60405180910390f35b61031860048036038101906103139190612601565b611480565b005b61032261167b565b60405161032f91906124cf565b60405180910390f35b610352600480360381019061034d91906122a4565b611a14565b60405161035f91906127c0565b60405180910390f35b610382600480360381019061037d919061211f565b611d8a565b60405161038f91906121f0565b60405180910390f35b606060006002836040516103ac919061281e565b9081526020016040518091039020541461049f57600460016002846040516103d4919061281e565b9081526020016040518091039020546103ed9190612864565b815481106103fe576103fd612898565b5b9060005260206000209060070201600401805461041a906128f6565b80601f0160208091040260200160405190810160405280929190818152602001828054610446906128f6565b80156104935780601f1061046857610100808354040283529160200191610493565b820191906000526020600020905b81548152906001019060200180831161047657829003601f168201915b505050505090506104d8565b6040518060400160405280600281526020017f4e4100000000000000000000000000000000000000000000000000000000000081525090505b919050565b606060006002836040516104f1919061281e565b908152602001604051809103902054146105e45760046001600284604051610519919061281e565b9081526020016040518091039020546105329190612864565b8154811061054357610542612898565b5b9060005260206000209060070201600101805461055f906128f6565b80601f016020809104026020016040519081016040528092919081815260200182805461058b906128f6565b80156105d85780601f106105ad576101008083540402835291602001916105d8565b820191906000526020600020905b8154815290600101906020018083116105bb57829003601f168201915b5050505050905061061d565b6040518060400160405280600281526020017f4e4100000000000000000000000000000000000000000000000000000000000081525090505b919050565b600080600283604051610635919061281e565b908152602001604051809103902054146106c0576004600160028460405161065d919061281e565b9081526020016040518091039020546106769190612864565b8154811061068757610686612898565b5b906000526020600020906007020160060160009054906101000a900473ffffffffffffffffffffffffffffffffffffffff1690506106c5565b600090505b919050565b606060006002836040516106de919061281e565b908152602001604051809103902054146107d15760046001600284604051610706919061281e565b90815260200160405180910390205461071f9190612864565b815481106107305761072f612898565b5b9060005260206000209060070201600201805461074c906128f6565b80601f0160208091040260200160405190810160405280929190818152602001828054610778906128f6565b80156107c55780601f1061079a576101008083540402835291602001916107c5565b820191906000526020600020905b8154815290600101906020018083116107a857829003601f168201915b5050505050905061080a565b6040518060400160405280600281526020017f4e4100000000000000000000000000000000000000000000000000000000000081525090505b919050565b6060816001541161082b57600180546108289190612864565b91505b60008267ffffffffffffffff81111561084757610846611ff4565b5b60405190808252806020026020018201604052801561088057816020015b61086d611ecf565b8152602001906001900390816108655790505b5090506000600180546108939190612864565b90505b836001546108a49190612864565b8110610c5a57600481815481106108be576108bd612898565b5b90600052602060002090600702016040518060e00160405290816000820180546108e7906128f6565b80601f0160208091040260200160405190810160405280929190818152602001828054610913906128f6565b80156109605780601f1061093557610100808354040283529160200191610960565b820191906000526020600020905b81548152906001019060200180831161094357829003601f168201915b50505050508152602001600182018054610979906128f6565b80601f01602080910402602001604051908101604052809291908181526020018280546109a5906128f6565b80156109f25780601f106109c7576101008083540402835291602001916109f2565b820191906000526020600020905b8154815290600101906020018083116109d557829003601f168201915b50505050508152602001600282018054610a0b906128f6565b80601f0160208091040260200160405190810160405280929190818152602001828054610a37906128f6565b8015610a845780601f10610a5957610100808354040283529160200191610a84565b820191906000526020600020905b815481529060010190602001808311610a6757829003601f168201915b50505050508152602001600382018054610a9d906128f6565b80601f0160208091040260200160405190810160405280929190818152602001828054610ac9906128f6565b8015610b165780601f10610aeb57610100808354040283529160200191610b16565b820191906000526020600020905b815481529060010190602001808311610af957829003601f168201915b50505050508152602001600482018054610b2f906128f6565b80601f0160208091040260200160405190810160405280929190818152602001828054610b5b906128f6565b8015610ba85780601f10610b7d57610100808354040283529160200191610ba8565b820191906000526020600020905b815481529060010190602001808311610b8b57829003601f168201915b50505050508152602001600582015481526020016006820160009054906101000a900473ffffffffffffffffffffffffffffffffffffffff1673ffffffffffffffffffffffffffffffffffffffff1673ffffffffffffffffffffffffffffffffffffffff1681525050828260018054610c219190612864565b610c2b9190612864565b81518110610c3c57610c3b612898565b5b60200260200101819052508080610c5290612927565b915050610896565b8192505050919050565b6002818051602081018201805184825260208301602085012081835280955050505050506000915090505481565b600080600283604051610ca5919061281e565b90815260200160405180910390205414610e9c5760001515600360006001600286604051610cd3919061281e565b908152602001604051809103902054610cec9190612864565b815260200190815260200160002060003373ffffffffffffffffffffffffffffffffffffffff1673ffffffffffffffffffffffffffffffffffffffff16815260200190815260200160002060009054906101000a900460ff16151503610e455760046001600284604051610d60919061281e565b908152602001604051809103902054610d799190612864565b81548110610d8a57610d89612898565b5b90600052602060002090600702016005016000815480929190610dac90612950565b91905055506001600360006001600286604051610dc9919061281e565b908152602001604051809103902054610de29190612864565b815260200190815260200160002060003373ffffffffffffffffffffffffffffffffffffffff1673ffffffffffffffffffffffffffffffffffffffff16815260200190815260200160002060006101000a81548160ff0219169083151502179055505b60046001600284604051610e59919061281e565b908152602001604051809103902054610e729190612864565b81548110610e8357610e82612898565b5b9060005260206000209060070201600501549050610ea1565b600090505b919050565b60048181548110610eb657600080fd5b9060005260206000209060070201600091509050806000018054610ed9906128f6565b80601f0160208091040260200160405190810160405280929190818152602001828054610f05906128f6565b8015610f525780601f10610f2757610100808354040283529160200191610f52565b820191906000526020600020905b815481529060010190602001808311610f3557829003601f168201915b505050505090806001018054610f67906128f6565b80601f0160208091040260200160405190810160405280929190818152602001828054610f93906128f6565b8015610fe05780601f10610fb557610100808354040283529160200191610fe0565b820191906000526020600020905b815481529060010190602001808311610fc357829003601f168201915b505050505090806002018054610ff5906128f6565b80601f0160208091040260200160405190810160405280929190818152602001828054611021906128f6565b801561106e5780601f106110435761010080835404028352916020019161106e565b820191906000526020600020905b81548152906001019060200180831161105157829003601f168201915b505050505090806003018054611083906128f6565b80601f01602080910402602001604051908101604052809291908181526020018280546110af906128f6565b80156110fc5780601f106110d1576101008083540402835291602001916110fc565b820191906000526020600020905b8154815290600101906020018083116110df57829003601f168201915b505050505090806004018054611111906128f6565b80601f016020809104026020016040519081016040528092919081815260200182805461113d906128f6565b801561118a5780601f1061115f5761010080835404028352916020019161118a565b820191906000526020600020905b81548152906001019060200180831161116d57829003601f168201915b5050505050908060050154908060060160009054906101000a900473ffffffffffffffffffffffffffffffffffffffff16905087565b6000806002836040516111d3919061281e565b9081526020016040518091039020541461123e57600460016002846040516111fb919061281e565b9081526020016040518091039020546112149190612864565b8154811061122557611224612898565b5b9060005260206000209060070201600501549050611243565b600090505b919050565b60008060028360405161125b919061281e565b908152602001604051809103902054146114525760001515600360006001600286604051611289919061281e565b9081526020016040518091039020546112a29190612864565b815260200190815260200160002060003373ffffffffffffffffffffffffffffffffffffffff1673ffffffffffffffffffffffffffffffffffffffff16815260200190815260200160002060009054906101000a900460ff161515036113fb5760046001600284604051611316919061281e565b90815260200160405180910390205461132f9190612864565b815481106113405761133f612898565b5b9060005260206000209060070201600501600081548092919061136290612998565b9190505550600160036000600160028660405161137f919061281e565b9081526020016040518091039020546113989190612864565b815260200190815260200160002060003373ffffffffffffffffffffffffffffffffffffffff1673ffffffffffffffffffffffffffffffffffffffff16815260200190815260200160002060006101000a81548160ff0219169083151502179055505b6004600160028460405161140f919061281e565b9081526020016040518091039020546114289190612864565b8154811061143957611438612898565b5b9060005260206000209060070201600501549050611457565b600090505b919050565b60008054906101000a900473ffffffffffffffffffffffffffffffffffffffff1681565b6000600286604051611492919061281e565b90815260200160405180910390205403611674576114ae611ecf565b858160000181905250338160c0019073ffffffffffffffffffffffffffffffffffffffff16908173ffffffffffffffffffffffffffffffffffffffff168152505060008160a001818152505084816020018190525083816040018190525082816060018190525081816080018190525060048190806001815401808255809150506001900390600052602060002090600702016000909190919091506000820151816000019080519060200190611566929190611f22565b506020820151816001019080519060200190611583929190611f22565b5060408201518160020190805190602001906115a0929190611f22565b5060608201518160030190805190602001906115bd929190611f22565b5060808201518160040190805190602001906115da929190611f22565b5060a0820151816005015560c08201518160060160006101000a81548173ffffffffffffffffffffffffffffffffffffffff021916908373ffffffffffffffffffffffffffffffffffffffff16021790555050506001805461163c91906129e0565b60028760405161164c919061281e565b9081526020016040518091039020819055506001805461166c91906129e0565b600181905550505b5050505050565b60606004805480602002602001604051908101604052809291908181526020016000905b82821015611a0b57838290600052602060002090600702016040518060e00160405290816000820180546116d2906128f6565b80601f01602080910402602001604051908101604052809291908181526020018280546116fe906128f6565b801561174b5780601f106117205761010080835404028352916020019161174b565b820191906000526020600020905b81548152906001019060200180831161172e57829003601f168201915b50505050508152602001600182018054611764906128f6565b80601f0160208091040260200160405190810160405280929190818152602001828054611790906128f6565b80156117dd5780601f106117b2576101008083540402835291602001916117dd565b820191906000526020600020905b8154815290600101906020018083116117c057829003601f168201915b505050505081526020016002820180546117f6906128f6565b80601f0160208091040260200160405190810160405280929190818152602001828054611822906128f6565b801561186f5780601f106118445761010080835404028352916020019161186f565b820191906000526020600020905b81548152906001019060200180831161185257829003601f168201915b50505050508152602001600382018054611888906128f6565b80601f01602080910402602001604051908101604052809291908181526020018280546118b4906128f6565b80156119015780601f106118d657610100808354040283529160200191611901565b820191906000526020600020905b8154815290600101906020018083116118e457829003601f168201915b5050505050815260200160048201805461191a906128f6565b80601f0160208091040260200160405190810160405280929190818152602001828054611946906128f6565b80156119935780601f1061196857610100808354040283529160200191611993565b820191906000526020600020905b81548152906001019060200180831161197657829003601f168201915b50505050508152602001600582015481526020016006820160009054906101000a900473ffffffffffffffffffffffffffffffffffffffff1673ffffffffffffffffffffffffffffffffffffffff1673ffffffffffffffffffffffffffffffffffffffff16815250508152602001906001019061169f565b50505050905090565b611a1c611ecf565b60048281548110611a3057611a2f612898565b5b90600052602060002090600702016040518060e0016040529081600082018054611a59906128f6565b80601f0160208091040260200160405190810160405280929190818152602001828054611a85906128f6565b8015611ad25780601f10611aa757610100808354040283529160200191611ad2565b820191906000526020600020905b815481529060010190602001808311611ab557829003601f168201915b50505050508152602001600182018054611aeb906128f6565b80601f0160208091040260200160405190810160405280929190818152602001828054611b17906128f6565b8015611b645780601f10611b3957610100808354040283529160200191611b64565b820191906000526020600020905b815481529060010190602001808311611b4757829003601f168201915b50505050508152602001600282018054611b7d906128f6565b80601f0160208091040260200160405190810160405280929190818152602001828054611ba9906128f6565b8015611bf65780601f10611bcb57610100808354040283529160200191611bf6565b820191906000526020600020905b815481529060010190602001808311611bd957829003601f168201915b50505050508152602001600382018054611c0f906128f6565b80601f0160208091040260200160405190810160405280929190818152602001828054611c3b906128f6565b8015611c885780601f10611c5d57610100808354040283529160200191611c88565b820191906000526020600020905b815481529060010190602001808311611c6b57829003601f168201915b50505050508152602001600482018054611ca1906128f6565b80601f0160208091040260200160405190810160405280929190818152602001828054611ccd906128f6565b8015611d1a5780601f10611cef57610100808354040283529160200191611d1a565b820191906000526020600020905b815481529060010190602001808311611cfd57829003601f168201915b50505050508152602001600582015481526020016006820160009054906101000a900473ffffffffffffffffffffffffffffffffffffffff1673ffffffffffffffffffffffffffffffffffffffff1673ffffffffffffffffffffffffffffffffffffffff16815250509050919050565b60606000600283604051611d9e919061281e565b90815260200160405180910390205414611e915760046001600284604051611dc6919061281e565b908152602001604051809103902054611ddf9190612864565b81548110611df057611def612898565b5b90600052602060002090600702016003018054611e0c906128f6565b80601f0160208091040260200160405190810160405280929190818152602001828054611e38906128f6565b8015611e855780601f10611e5a57610100808354040283529160200191611e85565b820191906000526020600020905b815481529060010190602001808311611e6857829003601f168201915b50505050509050611eca565b6040518060400160405280600281526020017f4e4100000000000000000000000000000000000000000000000000000000000081525090505b919050565b6040518060e00160405280606081526020016060815260200160608152602001606081526020016060815260200160008152602001600073ffffffffffffffffffffffffffffffffffffffff1681525090565b828054611f2e906128f6565b90600052602060002090601f016020900481019282611f505760008555611f97565b82601f10611f6957805160ff1916838001178555611f97565b82800160010185558215611f97579182015b82811115611f96578251825591602001919060010190611f7b565b5b509050611fa49190611fa8565b5090565b5b80821115611fc1576000816000905550600101611fa9565b5090565b6000604051905090565b600080fd5b600080fd5b600080fd5b600080fd5b6000601f19601f8301169050919050565b7f4e487b7100000000000000000000000000000000000000000000000000000000600052604160045260246000fd5b61202c82611fe3565b810181811067ffffffffffffffff8211171561204b5761204a611ff4565b5b80604052505050565b600061205e611fc5565b905061206a8282612023565b919050565b600067ffffffffffffffff82111561208a57612089611ff4565b5b61209382611fe3565b9050602081019050919050565b82818337600083830152505050565b60006120c26120bd8461206f565b612054565b9050828152602081018484840111156120de576120dd611fde565b5b6120e98482856120a0565b509392505050565b600082601f83011261210657612105611fd9565b5b81356121168482602086016120af565b91505092915050565b60006020828403121561213557612134611fcf565b5b600082013567ffffffffffffffff81111561215357612152611fd4565b5b61215f848285016120f1565b91505092915050565b600081519050919050565b600082825260208201905092915050565b60005b838110156121a2578082015181840152602081019050612187565b838111156121b1576000848401525b50505050565b60006121c282612168565b6121cc8185612173565b93506121dc818560208601612184565b6121e581611fe3565b840191505092915050565b6000602082019050818103600083015261220a81846121b7565b905092915050565b600073ffffffffffffffffffffffffffffffffffffffff82169050919050565b600061223d82612212565b9050919050565b61224d81612232565b82525050565b60006020820190506122686000830184612244565b92915050565b6000819050919050565b6122818161226e565b811461228c57600080fd5b50565b60008135905061229e81612278565b92915050565b6000602082840312156122ba576122b9611fcf565b5b60006122c88482850161228f565b91505092915050565b600081519050919050565b600082825260208201905092915050565b6000819050602082019050919050565b600082825260208201905092915050565b600061231982612168565b61232381856122fd565b9350612333818560208601612184565b61233c81611fe3565b840191505092915050565b6000819050919050565b61235a81612347565b82525050565b600061236b82612212565b9050919050565b61237b81612360565b82525050565b600060e083016000830151848203600086015261239e828261230e565b915050602083015184820360208601526123b8828261230e565b915050604083015184820360408601526123d2828261230e565b915050606083015184820360608601526123ec828261230e565b91505060808301518482036080860152612406828261230e565b91505060a083015161241b60a0860182612351565b5060c083015161242e60c0860182612372565b508091505092915050565b60006124458383612381565b905092915050565b6000602082019050919050565b6000612465826122d1565b61246f81856122dc565b935083602082028501612481856122ed565b8060005b858110156124bd578484038952815161249e8582612439565b94506124a98361244d565b925060208a01995050600181019050612485565b50829750879550505050505092915050565b600060208201905081810360008301526124e9818461245a565b905092915050565b6124fa8161226e565b82525050565b600060208201905061251560008301846124f1565b92915050565b61252481612347565b82525050565b600060208201905061253f600083018461251b565b92915050565b61254e81612360565b82525050565b600060e082019050818103600083015261256e818a6121b7565b9050818103602083015261258281896121b7565b9050818103604083015261259681886121b7565b905081810360608301526125aa81876121b7565b905081810360808301526125be81866121b7565b90506125cd60a083018561251b565b6125da60c0830184612545565b98975050505050505050565b60006020820190506125fb6000830184612545565b92915050565b600080600080600060a0868803121561261d5761261c611fcf565b5b600086013567ffffffffffffffff81111561263b5761263a611fd4565b5b612647888289016120f1565b955050602086013567ffffffffffffffff81111561266857612667611fd4565b5b612674888289016120f1565b945050604086013567ffffffffffffffff81111561269557612694611fd4565b5b6126a1888289016120f1565b935050606086013567ffffffffffffffff8111156126c2576126c1611fd4565b5b6126ce888289016120f1565b925050608086013567ffffffffffffffff8111156126ef576126ee611fd4565b5b6126fb888289016120f1565b9150509295509295909350565b600060e0830160008301518482036000860152612725828261230e565b9150506020830151848203602086015261273f828261230e565b91505060408301518482036040860152612759828261230e565b91505060608301518482036060860152612773828261230e565b9150506080830151848203608086015261278d828261230e565b91505060a08301516127a260a0860182612351565b5060c08301516127b560c0860182612372565b508091505092915050565b600060208201905081810360008301526127da8184612708565b905092915050565b600081905092915050565b60006127f882612168565b61280281856127e2565b9350612812818560208601612184565b80840191505092915050565b600061282a82846127ed565b915081905092915050565b7f4e487b7100000000000000000000000000000000000000000000000000000000600052601160045260246000fd5b600061286f8261226e565b915061287a8361226e565b92508282101561288d5761288c612835565b5b828203905092915050565b7f4e487b7100000000000000000000000000000000000000000000000000000000600052603260045260246000fd5b7f4e487b7100000000000000000000000000000000000000000000000000000000600052602260045260246000fd5b6000600282049050600182168061290e57607f821691505b602082108103612921576129206128c7565b5b50919050565b60006129328261226e565b91506000820361294557612944612835565b5b600182039050919050565b600061295b82612347565b91507f7fffffffffffffffffffffffffffffffffffffffffffffffffffffffffffffff820361298d5761298c612835565b5b600182019050919050565b60006129a382612347565b91507f800000000000000000000000000000000000000000000000000000000000000082036129d5576129d4612835565b5b600182039050919050565b60006129eb8261226e565b91506129f68361226e565b9250827fffffffffffffffffffffffffffffffffffffffffffffffffffffffffffffffff03821115612a2b57612a2a612835565b5b82820190509291505056fea26469706673582212207d68785d1740282b86e2448285d99e5465a30019483849a50c1b5cc62ff9f98e64736f6c634300080d0033",
  "immutableReferences": {},
  "source": "// SPDX-License-Identifier: MIT\npragma solidity ^0.8.10;\n\ncontract Article {\n    \n    struct article{\n        string ipfsHash;\n        string title;\n        string description;\n        string authorName;\n        string coverImageHash;\n        int votes;\n        address payable author;\n    }\n\n    address payable public owner;\n\n    constructor() payable {\n        owner = payable(msg.sender);\n    }\n\n    uint totalArticles = 0;\n    mapping(string => uint) public articleID;\n    mapping(uint=>mapping(address=>bool)) hasVoted;\n\n    article[] public  articleStorage;\n\n    function addArticle(string memory _ipfsHash, string memory _title, string memory _description, string memory _authorName, string memory _coverImageHash) public {\n        if(articleID[_ipfsHash]==0){\n            article memory newArticle;\n\n            newArticle.ipfsHash = _ipfsHash;\n            newArticle.author = payable(msg.sender);\n            newArticle.votes = 0;\n            newArticle.title = _title;\n            newArticle.description = _description;\n            newArticle.authorName = _authorName;\n            newArticle.coverImageHash = _coverImageHash;\n\n            articleStorage.push(newArticle);\n            articleID[_ipfsHash] = totalArticles + 1;\n            totalArticles = totalArticles + 1;\n        }\n    }\n\n    function getAuthorKey(string memory _ipfsHash) public view returns (address){\n        if(articleID[_ipfsHash]!=0)\n            return articleStorage[articleID[_ipfsHash]-1].author;\n        return 0x0000000000000000000000000000000000000000;\n    }\n\n    function getVotes(string memory _ipfsHash) public view returns (int){\n        if(articleID[_ipfsHash]!=0)\n            return articleStorage[articleID[_ipfsHash]-1].votes;\n        return 0;\n    }\n\n    function getTitle(string memory _ipfsHash) public view returns (string memory){\n        if(articleID[_ipfsHash]!=0)\n            return articleStorage[articleID[_ipfsHash]-1].title;\n        return \"NA\";\n    }\n\n    function getDescription(string memory _ipfsHash) public view returns (string memory){\n        if(articleID[_ipfsHash]!=0)\n            return articleStorage[articleID[_ipfsHash]-1].description;\n        return \"NA\";\n    }\n\n    function getAuthorName(string memory _ipfsHash) public view returns (string memory ){\n        if(articleID[_ipfsHash]!=0)\n            return articleStorage[articleID[_ipfsHash]-1].authorName;\n        return \"NA\";\n    }\n\n    function getCoverImageHash(string memory _ipfsHash) public view returns (string memory){\n        if(articleID[_ipfsHash]!=0)\n            return articleStorage[articleID[_ipfsHash]-1].coverImageHash;\n        return \"NA\";\n    }\n\n    function getRecentArticles(uint retrieve) public view returns (article [] memory ){\n\n        if(totalArticles <= retrieve){\n            retrieve = totalArticles - 1;\n        }\n\n        article[] memory listOfArticles = new article[] (retrieve);\n        uint i = 0;\n        for(i=totalArticles-1;i>=totalArticles-retrieve;i--){\n            listOfArticles[totalArticles-1-i] = articleStorage[i];\n        }\n        return listOfArticles;\n\n    }\n\n    function getArticle(uint _articleID) public view returns(article memory){\n        return articleStorage[_articleID];\n    }\n    \n    function getAllArticles() public view returns(article [] memory){\n        return articleStorage;\n    }\n\n    function upvote(string memory _ipfsHash) public returns (int) {\n        \n        if(articleID[_ipfsHash]!=0)\n        {\n            if(hasVoted[articleID[_ipfsHash]-1][msg.sender] == false){\n                articleStorage[articleID[_ipfsHash]-1].votes++;\n                hasVoted[articleID[_ipfsHash]-1][msg.sender] = true;\n            }\n            \n            return articleStorage[articleID[_ipfsHash]-1].votes;\n        }\n        return 0;\n        \n    }\n\n    function downvote(string memory _ipfsHash) public returns (int) {\n        \n        if(articleID[_ipfsHash]!=0)\n        {\n            if(hasVoted[articleID[_ipfsHash]-1][msg.sender] == false){\n                articleStorage[articleID[_ipfsHash]-1].votes--;\n                hasVoted[articleID[_ipfsHash]-1][msg.sender] = true;\n            }\n            \n            return articleStorage[articleID[_ipfsHash]-1].votes;\n        }\n        return 0;\n        \n    }\n\n}",
  "sourcePath": "/home/vaishakh/Desktop/Projects/IEEE Hackathon/contracts/Article.sol",
  "compiler": {
    "name": "solc",
    "version": "0.8.13+commit.abaa5c0e.Emscripten.clang"
  },
  "schemaVersion": "3.4.6",
  "updatedAt": "2022-04-03T10:57:33.610Z",
  "networkType": "ethereum",
  "devdoc": {
    "kind": "dev",
    "methods": {},
    "version": 1
  },
  "userdoc": {
    "kind": "user",
    "methods": {},
    "version": 1
  }
}